:020000021000EC
:10F000000C9438F80C944AF80C944AF80C944AF88A
:10F010000C944AF80C944AF80C944AF80C944AF868
:10F020000C944AF80C944AF80C944AF80C944AF858
:10F030000C944AF80C944AF80C944AF80C944AF848
:10F040000C944AF80C944AF80C944AF80C944AF838
:10F050000C944AF80C944AF80C944AF80C944AF828
:10F060000C944AF80C944AF80C944AF80C944AF818
:10F0700011241FBECFEFD0E1DEBFCDBF12E0A0E074
:10F08000B1E001C01D92A930B107E1F70E946BF910
:10F090000C9449FB0C9400F89091C00095FFFCCFB4
:10F0A0008093C6000895CF93282F332727FD3095EE
:10F0B000207F307094E0359527959A95E1F72A30B6
:10F0C00014F0295A01C0205DC82FCF70CA3014F047
:10F0D000C95A01C0C05D822F0E944CF88C2F0E943B
:10F0E0004CF8CF910895EF92FF920F931F932898B9
:10F0F000EE24FF24870113C00894E11CF11C011DBC
:10F10000111D81E0E81689E0F8068DE3080780E02C
:10F11000180728F0E0910101F09102010995809112
:10F12000C00087FFE9CF289A8091C6001F910F91F8
:10F13000FF90EF900895CF93DF930E9473F8D82F3C
:10F140000E944CF80E9473F8C82F0E944CF8D136E8
:10F1500014F0D75503C0D0330CF0D053C13614F09F
:10F16000C75503C0C0330CF0C0538D2F8295807FEC
:10F170008C0FDF91CF91089590E007C02091C000DF
:10F1800027FFFCCF2091C6009F5F9817B8F3089522
:10F19000CF93C82F0E9473F8803251F484E10E940B
:10F1A0004CF88C2F0E944CF880E10E944CF80CC067
:10F1B000809100018F5F80930001853029F4E091F8
:10F1C0000101F09102010995CF9108950E9473F811
:10F1D000803239F484E10E944CF880E10E944CF8BE
:10F1E0000895809100018F5F80930001853029F49C
:10F1F000E0910101F091020109950895DF93CF9309
:10F2000000D000D0CDB7DEB7882309F481E090E0CC
:10F210003DC0289A19821A821B821C820CC0298147
:10F220003A814B815C812F5F3F4F4F4F5F4F298366
:10F230003A834B835C8329813A814B815C812038FE
:10F240006EE3360760E0460760E0560740F3289813
:10F2500019821A821B821C820CC029813A814B813F
:10F260005C812F5F3F4F4F4F5F4F29833A834B8322
:10F270005C8329813A814B815C8120306AEF3607BB
:10F2800060E0460760E0560740F39F5F981709F675
:10F2900019821A821B821C820BC089819A81AB81E0
:10F2A000BC810196A11DB11D89839A83AB83BC8368
:10F2B00089819A81AB81BC81803021E7920722E06D
:10F2C000A20720E0B20748F30F900F900F900F9025
:10F2D000CF91DF910895CF92DF92EF92FF920F933B
:10F2E0001F93CF93DF93000094B714BE809160000A
:10F2F0008861809360001092600091FD05C0E091EC
:10F300000101F0910201099589E18093C4001092F6
:10F31000C50088E18093C10086E08093C2005098C8
:10F32000589A209A83E00E94FEF881E00E94FEF83D
:10F330000E9473F8803309F441C08133E1F40E94E4
:10F3400073F8803209F097C184E10E944CF881E49F
:10F350000E944CF886E50E944CF882E50E944CF829
:10F3600080E20E944CF889E40E944CF883E50E94F8
:10F370004CF880E50BC1803439F40E9473F886386C
:10F38000E8F00E9473F81AC0813499F40E9473F86F
:10F39000803811F482E06CC1813811F481E068C1D9
:10F3A000823811F480E164C1883909F060C183E0DA
:10F3B0005FC1823431F484E10E94BCF80E94E6F817
:10F3C000B7CF853411F485E0F7CF8035B9F38135B7
:10F3D00031F40E94E6F888E080936000FFCF823528
:10F3E00069F3853549F40E9473F8809303010E9404
:10F3F00073F880930401E2CF863521F484E00E9403
:10F40000BCF835C1843609F0C7C00E9473F88093F8
:10F4100006020E9473F880930502809108028E7F95
:10F42000809308020E9473F8853429F480910802C1
:10F4300081608093080205E011E0F801119281E0FB
:10F44000E538F807D9F745E0C42E41E0D42EEE2484
:10F45000FF2408C00E9473F8F60181936F0108949D
:10F46000E11CF11C8091050290910602E816F90654
:10F4700088F30E9473F8803209F0FDC08091080281
:10F4800080FD17C020C0F999FECF20910301309173
:10F49000040132BD21BDF80141918F0140BDFA9AAE
:10F4A000F99A2F5F3F4F3093040120930301019697
:10F4B00002C080E090E020910502309106028217A0
:10F4C000930708F362C08091030190910401880FB3
:10F4D000991F90930401809303018091050280FF9E
:10F4E00009C0809105029091060201969093060250
:10F4F00080930502F999FECF1127E0910301F09165
:10F500000401C5E0D1E0809105029091060210301F
:10F5100091F40091570001700130D9F303E000939A
:10F520005700E8950091570001700130D9F301E1CF
:10F5300000935700E89509901990009157000170C9
:10F540000130D9F301E000935700E8951395103886
:10F5500098F011270091570001700130D9F305E0B0
:10F5600000935700E8950091570001700130D9F3DE
:10F5700001E100935700E8953296029709F0C7CF52
:10F58000103011F00296E5CF112484E10E944CF86E
:10F5900080E10E944CF8CCCE843709F055C00E941F
:10F5A00073F8809306020E9473F8809305020E940C
:10F5B00073F890910802853421F4916090930802C9
:10F5C0000DC09E7F909308028091030190910401E9
:10F5D000880F991F90930401809303010E9473F890
:10F5E000803209F0A5CE84E10E944CF800E010E0E2
:10F5F00023C08091080280FF0BC0F999FECF809153
:10F6000003019091040192BD81BDF89A80B507C0B5
:10F6100081FD07C0E0910301F091040184910E94F3
:10F620004CF880910301909104010196909304019C
:10F63000809303010F5F1F4F809105029091060296
:10F6400008171907B0F2A4CF853779F40E9473F830
:10F65000803289F484E10E944CF88EE10E944CF8DB
:10F6600086E90E944CF889E091CF863721F480E04A
:10F670000E94C8F85DCE809100018F5F80930001E9
:10F68000853009F055CEE0910101F0910201099514
:06F690004FCEF894FFCFFD
:040000031000F000F9
:00000001FF
