:10F800000C94387C0C94557C0C94557C0C94557C51
:10F810000C94557C0C94557C0C94557C0C94557C24
:10F820000C94557C0C94557C0C94557C0C94557C14
:10F830000C94557C0C94557C0C94557C0C94557C04
:10F840000C94557C0C94557C0C94557C0C94557CF4
:10F850000C94557C0C94557C0C94557C0C94557CE4
:10F860000C94557C0C94557C0C94557C0C94557CD4
:10F8700011241FBECFEFD0E1DEBFCDBF11E0A0E06D
:10F88000B1E0EAE1F6E002C005900D92A230B107C6
:10F89000D9F712E0A2E0B1E001C01D92AD30B1078E
:10F8A000E1F70E94B67D0C940B830C94007CEF92E0
:10F8B000FF920F931F93EE24FF2487018091C000D5
:10F8C00087FD17C00894E11CF11C011D111D81E486
:10F8D000E81682E4F8068FE0080780E0180770F366
:10F8E000E0910401F091050109958091C00087FF26
:10F8F000E9CF2091C600822F9091C00095FFFCCFE8
:10F900002093C60021364CF4203314F0822F80530C
:10F910001F910F91FF90EF900895822F87551F91AF
:10F920000F91FF90EF900895CF930E94577CC82FBE
:10F930000E94577CC295C07F8C0FCF910895282FCD
:10F940002595259525952595205D8F708A3074F035
:10F95000895A9091C00095FFFCCF2093C6009091EA
:10F96000C00095FFFCCF8093C6000895805DF1CF65
:10F970009091C00095FFFCCF8093C6000895EF9250
:10F98000FF920F931F93EE24FF2487018091C00004
:10F9900087FD17C00894E11CF11C011D111D81E4B5
:10F9A000E81682E4F8068FE0080780E0180770F395
:10F9B000E0910401F091050109958091C00087FF55
:10F9C000E9CF8091C6001F910F91FF90EF900895AD
:10F9D000882349F081509091C00097FFFCCF90910F
:10F9E000C6008823B9F70895EF92FF920F931F93F3
:10F9F000CF93C82FEE24FF2487018091C00087FD9C
:10FA000017C00894E11CF11C011D111D81E4E816CA
:10FA100082E4F8068FE0080780E0180770F3E091B1
:10FA20000401F091050109958091C00087FFE9CF9D
:10FA30008091C600803269F0809103018F5F8093CE
:10FA40000301853001F1CF911F910F91FF90EF904D
:10FA500008958091C00085FFFCCF84E18093C600AB
:10FA60008091C00085FFFCCFC093C6008091C0008C
:10FA700085FFFCCF80E18093C600CF911F910F914D
:10FA8000FF90EF900895E0910401F0910501099530
:10FA9000CF911F910F91FF90EF900895EF92FF92F9
:10FAA0000F931F93EE24FF2487018091C00087FDF0
:10FAB00017C00894E11CF11C011D111D81E4E8161A
:10FAC00082E4F8068FE0080780E0180770F3E09101
:10FAD0000401F091050109958091C00087FFE9CFED
:10FAE0008091C600803261F0809103018F5F809326
:10FAF00003018530C1F01F910F91FF90EF900895A1
:10FB00008091C00085FFFCCF84E18093C600809186
:10FB1000C00085FFFCCF80E18093C6001F910F914C
:10FB2000FF90EF900895E0910401F091050109958F
:10FB30001F910F91FF90EF90089515C0289A2FEF15
:10FB400031EE44E0215030404040E1F700C0000079
:10FB500028982FEF31EE44E0215030404040E1F74B
:10FB600000C000008150882349F708952F923F92EA
:10FB70004F925F926F927F928F929F92AF92BF92BD
:10FB8000CF92DF92EF92FF920F931F93CF93DF9369
:10FB9000000080E18093C4001092C5001092C00064
:10FBA00086E08093C20088E18093C100209A80E0C3
:10FBB0000E949D7DEE24FF24870184E1982ED0E1F0
:10FBC0008D2EC1E47C2EB6E56B2EA2E55A2EF0E216
:10FBD0004F2EE9E43E2E73E5272E8091C00087FD6D
:10FBE00017C00894E11CF11C011D111D81E4E816E9
:10FBF00082E4F8068FE0080780E0180770F3E091D0
:10FC00000401F091050109958091C00087FFE9CFBB
:10FC10008091C6008033B1F18133D1F1803409F491
:10FC200094C0813409F4DAC0823409F40AC18534FD
:10FC300009F413C1803531F1823521F1813511F19B
:10FC4000853509F422C1863509F463C1843609F487
:10FC5000A2C1843709F4A9C2853709F491C3863754
:10FC600009F4E8C0809103018F5F80930301853020
:10FC700009F402C1EE24FF248701AFCF8091C600B2
:10FC8000809307010E944E7DEE24FF248701A5CFBB
:10FC9000EE24FF2487018091C00087FD17C00894DF
:10FCA000E11CF11C011D111DE1E4EE16E2E4FE066B
:10FCB000EFE00E07E0E01E0770F3E0910401F09121
:10FCC000050109958091C00087FFE9CF8091C600AA
:10FCD000803241F68091C00085FFFCCF9092C60033
:10FCE0008091C00085FFFCCF7092C6008091C0005B
:10FCF00085FFFCCF6092C6008091C00085FFFCCFDD
:10FD00005092C6008091C00085FFFCCF4092C60093
:10FD10008091C00085FFFCCF3092C6008091C0006A
:10FD200085FFFCCF2092C6008091C00085FFFCCFEC
:10FD3000F0E5F093C6008091C00085FFFCCF809273
:10FD4000C600EE24FF24870148CFEE24FF2487015C
:10FD50008091C00087FD17C00894E11CF11C011DB3
:10FD6000111D81E4E81682E4F8068FE0080780E0C0
:10FD7000180770F3E0910401F09105010995809155
:10FD8000C00087FFE9CF8091C600863808F47ACF9B
:10FD9000EE24FF2487018091C00087FD17C00894DE
:10FDA000E11CF11C011D111DE1E4EE16E2E4FE066A
:10FDB000EFE00E07E0E01E0770F3E0910401F09120
:10FDC000050109958091C00087FFE9CF8091C600A9
:10FDD0000E944E7DEE24FF248701FFCEEE24FF24F7
:10FDE00087018091C00087FD17C00894E11CF11CB9
:10FDF000011D111DF1E4EF16F2E4FF06FFE00F070D
:10FE0000F0E01F0770F3E0910401F09105010995FE
:10FE10008091C00087FFE9CF8091C600803809F447
:10FE2000A5C0813809F4A9C0823809F4ADC0883969
:10FE300009F468C080E00E94F47CEE24FF2487016E
:10FE4000CCCE93E18091C00087FFFCCF8091C600AB
:10FE5000992309F417CF9150F5CF95E08091C00018
:10FE600087FFFCCF8091C6009150C1F70E944E7D64
:10FE7000EE24FF248701B1CEE0910401F091050149
:10FE80000995EE24FF248701A8CEEE24FF248701E4
:10FE90008091C00087FD17C00894E11CF11C011D72
:10FEA000111D81E4E81682E4F8068FE0080780E07F
:10FEB000180770F3E0910401F09105010995809114
:10FEC000C00087FFE9CF8091C60080930601EE2431
:10FED000FF2487018091C00087FDD0CE0894E11CEB
:10FEE000F11C011D111DE1E4EE16E2E4FE06EFE057
:10FEF0000E07E0E01E0770F3E0910401F0910501A8
:10FF00000995E8CF83E00E94F47CEE24FF2487016A
:10FF100064CEEE24FF2487018091C00087FD17C0C6
:10FF20000894E11CF11C011D111DF1E4EF16F2E42F
:10FF3000FF06FFE00F07F0E01F0770F3E0910401F8
:10FF4000F091050109958091C00087FFE9CF80916C
:10FF5000C600803309F457C293E08091C00087FF48
:10FF6000FCCF8091C6009150C1F764CF82E00E941F
:10FF7000F47CEE24FF24870130CE81E00E94F47CE3
:10FF8000EE24FF24870129CE80E10E94F47CEE2438
:10FF9000FF24870122CEEE24FF2487018091C00038
:10FFA00087FD17C00894E11CF11C011D111D81E49F
:10FFB000E81682E4F8068FE0080780E0180770F37F
:10FFC000E0910401F091050109958091C00087FF3F
:10FFD000E9CF8091C60080930902EE24FF248701B7
:10FFE0008091C00087FD17C00894E11CF11C011D21
:10FFF000111DE1E4EE16E2E4FE06EFE00E07E0E09C
:020000021000EC
:100000001E0770F3E0910401F091050109958091BC
:10001000C00087FFE9CF8091C600809308028091DD
:100020000C028E7F80930C02EE24FF2487018091C6
:10003000C00087FD17C00894E11CF11C011D111DB3
:10004000F1E4EF16F2E4FF06FFE00F07F0E01F0710
:1000500070F3E0910401F091050109958091C000D1
:1000600087FFE9CF8091C600853429F480910C0286
:10007000816080930C0280910802909109020097A0
:1000800099F168E0A62E61E0B62ECC24DD24EE24A2
:10009000FF2487018091C00087FD17C00894E11CF0
:1000A000F11C011D111D81E4E81682E4F8068FE0C1
:1000B000080780E0180770F3E0910401F091050152
:1000C00009958091C00087FFE9CF8091C600F501B6
:1000D00081935F010894C11CD11C8091080290910A
:1000E0000902C816D90698F2EE24FF2487018091F0
:1000F000C00087FD17C00894E11CF11C011D111DF3
:10010000F1E4EF16F2E4FF06FFE00F07F0E01F074F
:1001100070F3E0910401F091050109958091C00010
:1001200087FFE9CF8091C600803209F09BCD809196
:100130000C0280FFE1C18091060190910701880FB8
:10014000991F909307018093060120910802309136
:10015000090221153105F1F048E0C42E41E0D42E0A
:10016000EE24FF24F60161916F010E94FD828091CF
:100170000601909107010196909307018093060173
:100180000894E11CF11C2091080230910902E2164A
:10019000F30640F38091C00085FFFCCF9092C6002B
:1001A0008091C00085FFFCCFCACDEE24FF248701DB
:1001B0008091C00087FD17C00894E11CF11C011D4F
:1001C000111DF1E4EF16F2E4FF06FFE00F07F0E087
:1001D0001F0770F3E0910401F091050109958091EA
:1001E000C00087FFE9CF8091C60080930902EE240A
:1001F000FF2487018091C00087FD17C00894E11C8F
:10020000F11C011D111D81E4E81682E4F8068FE05F
:10021000080780E0180770F3E0910401F0910501F0
:1002200009958091C00087FFE9CF8091C600809337
:100230000802809106019091070197FD57C1209116
:100240000C022D7F20930C02880F991F90930701B9
:1002500080930601EE24FF2487018091C00087FD72
:1002600017C00894E11CF11C011D111DE1E4EE16FC
:10027000E2E4FE06EFE00E07E0E01E0770F3E09117
:100280000401F091050109958091C00087FFE9CF35
:100290008091C600853409F423C180910C028E7FC1
:1002A00080930C02EE24FF2487018091C00087FD1B
:1002B00017C00894E11CF11C011D111DF1E4EF169B
:1002C000F2E4FF06FFE00F07F0E01F0770F3E09194
:1002D0000401F091050109958091C00087FFE9CFE5
:1002E0008091C600803209F0C5CC8091C00085FFA6
:1002F000FCCF9092C600A0900802B0900902A11411
:10030000B10419F1CC24DD2410910C02E090060117
:10031000F0900701D12FD1701270DD23F9F0C701E1
:100320000E94F5829091C00095FFFCCF8093C6009B
:100330000894E11CF11CF0920701E0920601089478
:10034000C11CD11CCA14DB0440F38091C00085FDA0
:10035000F6CC8091C00085FFF8CFF1CC112341F499
:10036000F70194918091C00085FFFCCF9093C60067
:100370000894E11CF11CF0920701E0920601DFCF26
:10038000EE24FF2487018091C00087FD17C00894E8
:10039000E11CF11C011D111DF1E4EF16F2E4FF0652
:1003A000FFE00F07F0E01F0770F3E0910401F09108
:1003B000050109958091C00087FFE9CF8091C600B3
:1003C000803209F04FCC8091C00085FFFCCF909225
:1003D000C6008091C00085FFFCCF8EE18093C600EF
:1003E0008091C00085FFFCCFE6E9E093C6008091D4
:1003F000C00085FFFCCFF9E0F093C6008091C000FB
:1004000085FFFCCF9CCCEE24FF2487018091C000A7
:1004100087FD17C00894E11CF11C011D111D81E42A
:10042000E81682E4F8068FE0080780E0180770F30A
:10043000E0910401F091050109958091C00087FFCA
:10044000E9CF8091C600EE24FF2487018091C0008F
:1004500087FD17C00894E11CF11C011D111DE1E48A
:10046000EE16E2E4FE06EFE00E07E0E01E0770F392
:10047000E0910401F091050109958091C00087FF8A
:10048000E9CFD091C600EE24FF2487018091C000FF
:1004900087FD17C00894E11CF11C011D111DF1E43A
:1004A000EF16F2E4FF06FFE00F07F0E01F0770F31E
:1004B000E0910401F091050109958091C00087FF4A
:1004C000E9CF8091C600DD2309F488C0D13009F45A
:1004D0007EC089E00E94F47CEE24FF2487017DCB5E
:1004E00080910C02816080930C02DCCE20910C0282
:1004F000226020930C02A8CE80910701880F880B00
:10050000817080930B028091060190910701880F02
:10051000991F90930701809306018091080280FF44
:1005200009C08091080290910902019690930902F6
:1005300080930802F894F999FECF1127E091060103
:10054000F0910701C8E0D1E0809108029091090282
:10055000103091F40091570001700130D9F303E09D
:1005600000935700E8950091570001700130D9F3CE
:1005700001E100935700E895099019900091570008
:1005800001700130D9F301E000935700E89513950D
:10059000103898F011270091570001700130D9F3FD
:1005A00005E000935700E895009157000170013075
:1005B000D9F301E100935700E8953296029709F0CC
:1005C000C7CF103011F00296E5CF1124E3CD86E9B4
:1005D0000E94F47CEE24FF248701FFCA8EE10E9472
:1005E000F47CEE24FF248701F8CAF999FECF92BD6E
:1005F00081BDF89A992780B50895262FF999FECFE5
:100600001FBA92BD81BD20BD0FB6F894FA9AF99A2F
:0A0610000FBE01960895F894FFCF85
:02061A0080005E
:040000030000F80001
:00000001FF
