:10F800000C94387C0C94557C0C94557C0C94557C51
:10F810000C94557C0C94557C0C94557C0C94557C24
:10F820000C94557C0C94557C0C94557C0C94557C14
:10F830000C94557C0C94557C0C94557C0C94557C04
:10F840000C94557C0C94557C0C94557C0C94557CF4
:10F850000C94557C0C94557C0C94557C0C94557CE4
:10F860000C94557C0C94557C0C94557C0C94557CD4
:10F8700011241FBECFEFD0E1DEBFCDBF11E0A0E06D
:10F88000B1E0E8EFFFEF02C005900D92A230B107A2
:10F89000D9F712E0A2E0B1E001C01D92AD30B1078E
:10F8A000E1F70E94347D0C94FA7F0C94007C982F31
:10F8B0009595959595959595905D8F708A307CF08E
:10F8C000282F295A8091C00085FFFCCF9093C60055
:10F8D0008091C00085FFFCCF2093C6000895282F9B
:10F8E000205DF0CF982F8091C00085FFFCCF9093D2
:10F8F000C6000895EF92FF920F931F93EE24FF240A
:10F9000087018091C00087FD17C00894E11CF11C9D
:10F91000011D111D81E4E81682E4F8068FE0080756
:10F9200080E0180770F3E0910401F091050109955A
:10F930008091C00087FFE9CF8091C6001F910F9191
:10F94000FF90EF9008950E947A7C982F8091C000DC
:10F9500085FFFCCF9093C60091362CF490330CF0C9
:10F960009053892F08959755892F08951F930E94CA
:10F97000A37C182F0E94A37C1295107F810F1F91EA
:10F980000895882351F0982F91508091C00087FFEF
:10F99000FCCF8091C6009923B9F708951F93182FC3
:10F9A0000E947A7C803249F0809103018F5F8093BE
:10F9B00003018530C1F01F9108958091C00085FF3B
:10F9C000FCCF84E18093C6008091C00085FFFCCF0E
:10F9D0001093C6008091C00085FFFCCF80E180932A
:10F9E000C6001F910895E0910401F0910501099569
:10F9F0001F9108950E947A7C803241F0809103012A
:10FA00008F5F80930301853081F008958091C0005D
:10FA100085FFFCCF84E18093C6008091C00085FF04
:10FA2000FCCF80E18093C6000895E0910401F0913D
:10FA300005010995089540E951E08823A1F0289A2D
:10FA400028EE33E0FA013197F1F721503040D1F739
:10FA5000289828EE33E0FA013197F1F72150304031
:10FA6000D1F7815061F708952F923F924F925F92A4
:10FA70006F927F928F929F92AF92BF92CF92DF92BE
:10FA8000EF92FF920F931F93CF93DF93000080E1DB
:10FA90008093C4001092C5001092C00086E080934D
:10FAA000C20088E18093C100209A80E00E941B7D03
:10FAB00004E1902E1EE1812EB6E97B2EA9E06A2E8C
:10FAC000F0E15F2E44244394E1E43E2E76E5272EB8
:10FAD0000E947A7C8033B1F1813309F441C08034D3
:10FAE00009F47EC0813409F491C0823471F1853407
:10FAF00009F480C0803531F1823521F1813511F171
:10FB0000853509F492C0863509F4A2C0843609F41B
:10FB1000B3C0843709F423C1853709F49CC1863703
:10FB200009F47FC0809103018F5F809303018530CA
:10FB300079F6E0910401F091050109950E947A7C23
:10FB4000803351F60E94FA7CC3CF93E18091C000CC
:10FB500087FFFCCF8091C6009923A1F39150F6CF87
:10FB60000E947A7C8032F1F68091C00085FFFCCF44
:10FB70009092C6008091C00085FFFCCF3092C600F5
:10FB80008091C00085FFFCCF2092C6008091C0000C
:10FB900085FFFCCF82E58093C6008091C00085FF81
:10FBA000FCCF80E28093C6008091C00085FFFCCF2F
:10FBB00089E48093C6008091C00085FFFCCF83E577
:10FBC0008093C6008091C00085FFFCCF80E58093C4
:10FBD000C6008091C00085FFFCCF5092C60078CF50
:10FBE0000E947A7C863808F4ADCF0E947A7C0E940D
:10FBF000FA7C6ECF94E08091C00087FFFCCF8091AB
:10FC0000C600992309F49ECF9150F5CF0E947A7CCB
:10FC10008038D1F0813861F1823809F49CC088398C
:10FC200079F080E00E94CE7C53CF0E947A7C809352
:10FC300006010E947A7C809307010E94FA7C48CFDB
:10FC400083E00E94CE7C44CF82E00E94CE7C40CFF5
:10FC50000E947A7C803309F428C192E08091C00030
:10FC600087FFFCCF8091C6009923D9F29150F6CF3F
:10FC700081E00E94CE7C2CCF0E947A7C8093090286
:10FC80000E947A7C8093080280910C028E7F809380
:10FC90000C020E947A7C853429F480910C028160E8
:10FCA00080930C028091080290910902892B89F0BF
:10FCB00000E010E00E947A7CF801E85FFE4F80834C
:10FCC0000F5F1F4F809108029091090208171907D2
:10FCD00088F30E947A7C803209F024CF80910C0254
:10FCE00080FFFAC02091060130910701220F331FD7
:10FCF0003093070120930601809108029091090238
:10FD0000892BE1F000E010E0F801E85FFE4FC90147
:10FD100060810E94EC7F20910601309107012F5FE6
:10FD20003F4F30930701209306010F5F1F4F8091D3
:10FD30000802909109020817190730F38091C0005A
:10FD400085FFFCCF9092C6008091C00085FFFCCF5C
:10FD50005092C600BDCE80E10E94CE7CB9CE0E94FA
:10FD60007A7C809309020E947A7C80930802209119
:10FD700006013091070137FDA9C080910C028D7FEB
:10FD800080930C02220F331F30930701209306014A
:10FD90000E947A7C853409F482C080910C028E7FA7
:10FDA00080930C020E947A7C803209F091CE80917F
:10FDB000C00085FFFCCF9092C600C0900802D09092
:10FDC0000902C114D10421F180910C02BB24B39427
:10FDD000B82292E0A92EA822EE24FF24BB2031F500
:10FDE000AA20F9F4E0910601F09107019491809125
:10FDF000C00085FFFCCF9093C6003196F0930701B9
:10FE0000E09306010894E11CF11CEC14FD0430F3AE
:10FE10008091C00085FDE1CE8091C00085FFF8CFC4
:10FE2000DCCEE0910601F0910701E7CF00910601D9
:10FE300010910701C8010E94E47F982F8091C000B3
:10FE400085FFFCCF9093C6000F5F1F4F10930701F3
:10FE500000930601D7CF0E947A7C803209F062CEEF
:10FE60008091C00085FFFCCF9092C6008091C000B9
:10FE700085FFFCCF8092C6008091C00085FFFCCF3B
:10FE80007092C6008091C00085FFFCCF6092C600D2
:10FE90008091C00085FFFCCF5092C60019CE8091A2
:10FEA0000C02816080930C027DCF0E947A7C0E94BC
:10FEB0007A7C182F0E947A7C112309F481C01130BA
:10FEC00009F47AC089E00E94CE7C02CE80910C02B7
:10FED000826080930C0256CF809107018823880F9F
:10FEE000880B842180930B02809106019091070179
:10FEF000880F991F90930701809306018091080253
:10FF000080FF09C0809108029091090201969093A8
:10FF1000090280930802F894F999FECF1127E09125
:10FF20000601F0910701C8E0D1E0809108029091AC
:10FF30000902103091F40091570001700130D9F39B
:10FF400003E000935700E8950091570001700130DD
:10FF5000D9F301E100935700E895099019900091B9
:10FF6000570001700130D9F301E000935700E89584
:10FF70001395103898F01127009157000170013047
:10FF8000D9F305E000935700E89500915700017000
:10FF90000130D9F301E100935700E89532960297BA
:10FFA00009F0C7CF103011F00296E5CF11248091EF
:10FFB000C00085FFC3CEC6CE86E90E94CE7C88CD28
:10FFC0008EE10E94CE7C84CDF999FECF92BD81BD99
:10FFD000F89A992780B50895262FF999FECF1FBA70
:10FFE00092BD81BD20BD0FB6F894FA9AF99A0FBE62
:08FFF00001960895F894FFCF7B
:02FFF800800087
:040000030000F80001
:00000001FF
