:10F800000C94387C0C94557C0C94557C0C94557C51
:10F810000C94557C0C94557C0C94557C0C94557C24
:10F820000C94557C0C94557C0C94557C0C94557C14
:10F830000C94557C0C94557C0C94557C0C94557C04
:10F840000C94557C0C94557C0C94557C0C94557CF4
:10F850000C94557C0C94557C0C94557C0C94557CE4
:10F860000C94557C0C94557C0C94557C0C94557CD4
:10F8700011241FBECFEFD0E1DEBFCDBF11E0A0E06D
:10F88000B1E0EEE0F6E002C005900D92A230B107C3
:10F89000D9F712E0A2E0B1E001C01D92AD30B1078E
:10F8A000E1F70E94B57D0C9405830C94007CCF9207
:10F8B000DF92EF92FF92CC24DD2476018091C0008C
:10F8C00087FD17C00894C11CD11CE11CF11C81E20A
:10F8D000C81681EAD80687E0E80680E0F80670F3EB
:10F8E000E0910201F091030109958091C00087FF2A
:10F8F000E9CF2091C600822F9091C00095FFFCCFE8
:10F900002093C60021364CF4203314F0822F80530C
:10F91000FF90EF90DF90CF900895822F8755FF9052
:10F92000EF90DF90CF900895CF930E94577CC82F1F
:10F930000E94577CC295C07F8C0FCF910895282FCD
:10F940002595259525952595205D8F708A3074F035
:10F95000895A9091C00095FFFCCF2093C6009091EA
:10F96000C00095FFFCCF8093C6000895805DF1CF65
:10F970009091C00095FFFCCF8093C6000895CF9270
:10F98000DF92EF92FF92CC24DD2476018091C000BB
:10F9900087FD17C00894C11CD11CE11CF11C81E239
:10F9A000C81681EAD80687E0E80680E0F80670F31A
:10F9B000E0910201F091030109958091C00087FF59
:10F9C000E9CF8091C600FF90EF90DF90CF9008952F
:10F9D000882341F09091C00097FFFCCF9091C60022
:10F9E0008150C1F70895CF92DF92EF92FF92CF93AB
:10F9F000C82FCC24DD2476018091C00087FD17C07C
:10FA00000894C11CD11CE11CF11C81E2C81681EADA
:10FA1000D80687E0E80680E0F80670F3E09102017E
:10FA2000F091030109958091C00087FFE9CF809193
:10FA3000C600803269F0809104018F5F80930401D9
:10FA4000853001F1CF91FF90EF90DF90CF90089536
:10FA50008091C00085FFFCCF84E18093C600809137
:10FA6000C00085FFFCCFC093C6008091C00085FF19
:10FA7000FCCF80E18093C600CF91FF90EF90DF90A4
:10FA8000CF900895E0910201F09103010995CF9183
:10FA9000FF90EF90DF90CF900895CF92DF92EF929A
:10FAA000FF92CC24DD2476018091C00087FD17C031
:10FAB0000894C11CD11CE11CF11C81E2C81681EA2A
:10FAC000D80687E0E80680E0F80670F3E0910201CE
:10FAD000F091030109958091C00087FFE9CF8091E3
:10FAE000C600803261F0809104018F5F8093040131
:10FAF0008530C1F0FF90EF90DF90CF900895809116
:10FB0000C00085FFFCCF84E18093C6008091C000D7
:10FB100085FFFCCF80E18093C600FF90EF90DF90DF
:10FB2000CF900895E0910201F09103010995FF90B3
:10FB3000EF90DF90CF90089515C0289A2FEF30E70F
:10FB400042E0215030404040E1F700C000002898DA
:10FB50002FEF30E742E0215030404040E1F700C055
:10FB600000008150882349F70895CF93DF9300D098
:10FB7000CDB7DEB700008CE08093C4001092C500C2
:10FB80001092C00086E08093C20088E18093C1009B
:10FB9000209ACC24DD24760174E1972EE0E18E2EAC
:10FBA000F1E47F2E8091C00087FD17C00894C11C2E
:10FBB000D11CE11CF11C81E2C81681EAD80687E05D
:10FBC000E80680E0F80670F3E0910201F09103018D
:10FBD00009958091C00087FFE9CF8091C6008033EE
:10FBE000B1F18133D1F1803409F499C0813409F441
:10FBF000DFC0823409F40FC1853409F41BC180359C
:10FC000031F1823521F1813511F1853509F42AC1AF
:10FC1000863509F46BC1843609F4AAC1843709F426
:10FC2000B5C2853709F49FC3863709F4EDC08091CA
:10FC300004018F5F80930401853009F40AC1CC244C
:10FC4000DD247601AFCF8091C600809307010E942A
:10FC50004D7DCC24DD247601A5CFCC24DD24760196
:10FC60008091C00087FD17C00894C11CD11CE11C05
:10FC7000F11CE1E2CE16E1EADE06E7E0EE06E0E0A6
:10FC8000FE0670F3E0910201F09103010995809165
:10FC9000C00087FFE9CF8091C600803241F6809195
:10FCA000C00085FFFCCF9092C6008091C00085FF08
:10FCB000FCCF7092C6008091C00085FFFCCF86E526
:10FCC0008093C6008091C00085FFFCCF82E58093C1
:10FCD000C6008091C00085FFFCCF80E28093C60003
:10FCE0008091C00085FFFCCF89E48093C60080919D
:10FCF000C00085FFFCCF83E58093C6008091C000E3
:10FD000085FFFCCF80E58093C6008091C00085FF11
:10FD1000FCCF8092C600CC24DD24760143CFCC24D6
:10FD2000DD2476018091C00087FD17C00894C11CB6
:10FD3000D11CE11CF11CF1E2CF16F1EADF06F7E07D
:10FD4000EF06F0E0FF0670F3E0910201F09103018D
:10FD500009958091C00087FFE9CF8091C600863861
:10FD600008F475CFCC24DD2476018091C00087FD96
:10FD700017C00894C11CD11CE11CF11C81E2C816FB
:10FD800081EAD80687E0E80680E0F80670F3E091A3
:10FD90000201F091030109958091C00087FFE9CF2E
:10FDA0008091C6000E944D7DCC24DD247601FACEE0
:10FDB000CC24DD2476018091C00087FD17C0089413
:10FDC000C11CD11CE11CF11CE1E2CE16E1EADE0609
:10FDD000E7E0EE06E0E0FE0670F3E0910201F0914C
:10FDE000030109958091C00087FFE9CF8091C6008B
:10FDF000803809F4A8C0813809F4ACC0823809F40D
:10FE0000B0C0883909F46BC080E00E94F37CCC2438
:10FE1000DD247601C7CE94E18091C00087FFFCCF3E
:10FE20008091C6009150C1F70E944D7DCC24DD2405
:10FE30007601B8CE95E08091C00087FFFCCF80911D
:10FE4000C6009150C1F70E944D7DCC24DD2476017F
:10FE5000A9CEE0910201F09103010995CC24DD24A3
:10FE60007601A0CECC24DD2476018091C00087FDF0
:10FE700017C00894C11CD11CE11CF11CF1E2CF1683
:10FE8000F1EADF06F7E0EF06F0E0FF0670F3E0913D
:10FE90000201F091030109958091C00087FFE9CF2D
:10FEA0008091C60080930601CC24DD2476018091E8
:10FEB000C00087FDC8CE0894C11CD11CE11CF11CF8
:10FEC00081E2C81681EAD80687E0E80680E0F806F5
:10FED00070F3E0910201F09103010995E8CF83E00E
:10FEE0000E94F37CCC24DD2476015CCECC24DD247E
:10FEF00076018091C00087FD17C00894C11CD11CF9
:10FF0000E11CF11CE1E2CE16E1EADE06E7E0EE06D6
:10FF1000E0E0FE0670F3E0910201F0910301099523
:10FF20008091C00087FFE9CF8091C600803309F43B
:10FF300062C293E08091C00087FFFCCF8091C60031
:10FF40009150C1F761CF82E00E94F37CCC24DD2484
:10FF5000760128CE81E00E94F37CCC24DD2476015A
:10FF600021CE80E10E94F37CCC24DD2476011ACEE0
:10FF7000CC24DD2476018091C00087FD17C0089451
:10FF8000C11CD11CE11CF11CF1E2CF16F1EADF0625
:10FF9000F7E0EF06F0E0FF0670F3E0910201F09168
:10FFA000030109958091C00087FFE9CF8091C600C9
:10FFB00080930902CC24DD2476018091C00087FD66
:10FFC00017C00894C11CD11CE11CF11C81E2C816A9
:10FFD00081EAD80687E0E80680E0F80670F3E09151
:10FFE0000201F091030109958091C00087FFE9CFDC
:10FFF0008091C6008093080280910C028E7F8093CE
:020000021000EC
:100000000C02CC24DD2476018091C00087FD17C04E
:100010000894C11CD11CE11CF11CE1E2CE16E1EAFE
:10002000DE06E7E0EE06E0E0FE0670F3E091020196
:10003000F091030109958091C00087FFE9CF80917D
:10004000C600853429F480910C02816080930C02F3
:100050008091080290910902009791F168E0A62E24
:1000600061E0B62E00E010E0CC24DD247601809122
:10007000C00087FD17C00894C11CD11CE11CF11CF5
:10008000F1E2CF16F1EADF06F7E0EF06F0E0FF0657
:1000900070F3E0910201F091030109958091C00095
:1000A00087FFE9CF8091C600F50181935F010F5F63
:1000B0001F4F809108029091090208171907A0F2BA
:1000C000CC24DD2476018091C00087FD17C0089400
:1000D000C11CD11CE11CF11CF1E2CF16F1EADF06D4
:1000E000F7E0EF06F0E0FF0670F3E0910201F09117
:1000F000030109958091C00087FFE9CF8091C60078
:10010000803209F094CD80910C0280FFEBC12091E8
:10011000060130910701220F331F3093070120930E
:10012000060180910802909109020097F9F048E0D9
:10013000C42E41E0D42E00E010E0F60161916F0181
:10014000C9010E94F78220910601309107012F5FBB
:100150003F4F30930701209306010F5F1F4F80919F
:100160000802909109020817190738F38091C0001E
:1001700085FFFCCF9092C6008091C00085FFFCCF28
:100180008092C600CC24DD2476010CCDCC24DD2465
:1001900076018091C00087FD17C00894C11CD11C56
:1001A000E11CF11CF1E2CF16F1EADF06F7E0EF0601
:1001B000F0E0FF0670F3E0910201F0910301099570
:1001C0008091C00087FFE9CF8091C600809309022B
:1001D000CC24DD2476018091C00087FD17C00894EF
:1001E000C11CD11CE11CF11C81E2C81681EAD806B1
:1001F00087E0E80680E0F80670F3E0910201F091F4
:10020000030109958091C00087FFE9CF8091C60066
:1002100080930802809106019091070120910C02C1
:1002200097FD5CC12D7F20930C02880F991F90933E
:10023000070180930601CC24DD2476018091C00063
:1002400087FD17C00894C11CD11CE11CF11CE1E220
:10025000CE16E1EADE06E7E0EE06E0E0FE0670F329
:10026000E0910201F091030109958091C00087FFA0
:10027000E9CF8091C600853409F42AC180910C022F
:100280008E7F80930C02CC24DD2476018091C00007
:1002900087FD17C00894C11CD11CE11CF11CF1E2C0
:1002A000CF16F1EADF06F7E0EF06F0E0FF0670F3A5
:1002B000E0910201F091030109958091C00087FF50
:1002C000E9CF8091C600803209F0B9CC8091C0009E
:1002D00085FFFCCF9092C600A0900802B090090262
:1002E000A114B10431F1CC24DD2420910C02009141
:1002F000060110910701322F31702270332311F162
:10030000C8012A8339830E94EF8239812A81909122
:10031000C00095FFFCCF8093C6000F5F1F4F109366
:100320000701009306010894C11CD11CCA14DB0408
:1003300028F38091C00085FDECCC8091C00085FF42
:10034000F8CFE7CC222341F4F80194918091C000CA
:1003500085FFFCCF9093C6000F5F1F4F10930701DE
:1003600000930601E0CFCC24DD2476018091C0000B
:1003700087FD17C00894C11CD11CE11CF11CF1E2DF
:10038000CF16F1EADF06F7E0EF06F0E0FF0670F3C4
:10039000E0910201F091030109958091C00087FF6F
:1003A000E9CF8091C600803209F041CC8091C00035
:1003B00085FFFCCF9092C6008091C00085FFFCCFE6
:1003C0008EE18093C6008091C00085FFFCCFE6E9F6
:1003D000E093C6008091C00085FFFCCFF9E0F09368
:1003E000C6008091C00085FFFCCF8092C600CC245F
:1003F000DD247601D7CBCC24DD2476018091C000AA
:1004000087FD17C00894C11CD11CE11CF11CF1E24E
:10041000CF16F1EADF06F7E0EF06F0E0FF0670F333
:10042000E0910201F091030109958091C00087FFDE
:10043000E9CF8091C600CC24DD2476018091C000F4
:1004400087FD17C00894C11CD11CE11CF11C81E27E
:10045000C81681EAD80687E0E80680E0F80670F35F
:10046000E0910201F091030109958091C00087FF9E
:10047000E9CF0091C600CC24DD2476018091C00034
:1004800087FD17C00894C11CD11CE11CF11CE1E2DE
:10049000CE16E1EADE06E7E0EE06E0E0FE0670F3E7
:1004A000E0910201F091030109958091C00087FF5E
:1004B000E9CF8091C600002309F48AC0013009F415
:1004C00080C089E00E94F37CCC24DD2476016ACBD5
:1004D00080910C02816080930C02D5CE2260209323
:1004E0000C02A3CE80910701880F880B8170809346
:1004F0000B028091060190910701880F991F90933C
:100500000701809306018091080280FF09C0809155
:1005100008029091090201969093090280930802C3
:10052000F894F999FECF1127E0910601F0910701A7
:10053000C8E0D1E08091080290910902103091F456
:100540000091570001700130D9F303E00093570088
:10055000E8950091570001700130D9F301E1009353
:100560005700E895099019900091570001700130EB
:10057000D9F301E000935700E8951395103898F0EF
:1005800011270091570001700130D9F305E0009365
:100590005700E8950091570001700130D9F301E14F
:1005A00000935700E8953296029709F0C7CF1030B4
:1005B00011F00296E5CF11248091C00085FFD6CDC1
:1005C000D9CD86E90E94F37CCC24DD247601EACAE9
:1005D0008EE10E94F37CCC24DD247601E3CAF999F4
:1005E000FECF92BD81BDF89A992780B50895262F38
:1005F000F999FECF1FBA92BD81BD20BD0FB6F89408
:0E060000FA9AF99A0FBE01960895F894FFCF6A
:02060E0080006A
:040000030000F80001
:00000001FF
